S0140000534D4152545F4D61737465722E73726563BE
S11300000C942A000C9447000C9447000C9447006D
S11300100C9447000C9447000C9447000C94470040
S11300200C9447000C9447000C94770B0C94A00B91
S11300300C9447000C9447000C9447000C94470020
S11300400C9447000C9447000C9447000C94470010
S11300500C94470011241FBECFE5D8E0DEBFCDBF0E
S113006012E0A0E6B0E0EEEBF7E102C005900D92DD
S1130070A039B107D9F712E0A0E9B2E001C01D929E
S1130080A639B107E1F70E9443050C94DD0B0C94EB
S11300900000843409F471C0853448F4823499F141
S11300A0833408F04DC0813409F083C00FC0823618
S11300B051F1833620F4813609F07BC007C08336C2
S11300C009F43EC0843609F074C057C0413069F465
S11300D02AB381E090E0AC0102C0440F551F6A9539
S11300E0E2F7BA01622B6ABB08952AB381E090E07B
S11300F0AC0102C0440F551F6A95E2F7BA0160953E
S113010062236ABB0895413069F427B381E090E02B
S1130110AC0102C0440F551F6A95E2F7BA01622B85
S113012067BB089527B381E090E0AC0102C0440F9F
S1130130551F6A95E2F7BA016095622367BB08957B
S1130140413069F424B381E090E0AC0102C0440F73
S1130150551F6A95E2F7BA01622B64BB089524B374
S113016081E090E0AC0102C0440F551F6A95E2F7AC
S1130170BA016095622364BB0895413069F421B3E8
S113018081E090E0AC0102C0440F551F6A95E2F78C
S1130190BA01622B61BB089521B381E090E0AC0108
S11301A002C0440F551F6A95E2F7BA0160956223B5
S11301B061BB0895843409F471C0853448F48234F1
S11301C099F1833408F04DC0813409F083C00FC025
S11301D0823651F1833620F4813609F07BC007C0A2
S11301E0833609F43EC0843609F074C057C04130E8
S11301F069F42BB381E090E0AC0102C0440F551FB9
S11302006A95E2F7BA01622B6BBB08952BB381E0C8
S113021090E0AC0102C0440F551F6A95E2F7BA01A1
S1130220609562236BBB0895413069F428B381E083
S113023090E0AC0102C0440F551F6A95E2F7BA0181
S1130240622B68BB089528B381E090E0AC0102C042
S1130250440F551F6A95E2F7BA016095622368BBA3
S11302600895413069F425B381E090E0AC0102C007
S1130270440F551F6A95E2F7BA01622B65BB0895D6
S113028025B381E090E0AC0102C0440F551F6A958C
S1130290E2F7BA016095622365BB0895413069F4C1
S11302A022B381E090E0AC0102C0440F551F6A956F
S11302B0E2F7BA01622B62BB089522B381E090E0B9
S11302C0AC0102C0440F551F6A95E2F7BA0160956C
S11302D0622362BB0895843409F43DC0853440F43C
S11302E08234F9F0833450F5813409F040C00CC0F5
S11302F08236B9F0833618F48136C9F505C08336E1
S1130300E9F08436A1F527C02BB381E090E0AC017D
S113031002C0440F551F6A95E2F7BA0162276BBB0E
S1130320089528B381E090E0AC0102C0440F551F4A
S11303306A95E2F7BA01622768BB089525B381E0A4
S113034090E0AC0102C0440F551F6A95E2F7BA0170
S1130350622765BB089522B381E090E0AC0102C03E
S1130360440F551F6A95E2F7BA01622762BB0895EC
S11303708434B1F1853438F48234E1F0833428F5DF
S11303808134C1F50CC08236A9F0833618F4813665
S113039089F505C08336C9F0843661F521C029B3D7
S11303A030E0C90102C0959587956A95E2F7982FC8
S11303B0917020C026B330E0C90102C0959587959D
S11303C06A95E2F7982F917015C023B330E0C90104
S11303D002C0959587956A95E2F7982F91700AC0A7
S11303E020B330E0C90102C0959587956A95E2F77C
S11303F0982F9170892F08958434D9F0853438F476
S1130400823499F0833498F48134A1F40CC0823698
S113041061F0833618F4813669F405C0833639F007
S1130420843641F406C06ABB089567BB089564BB73
S1130430089561BB08958434D9F0853438F4823446
S113044099F0833498F48134A1F40CC0823661F0BD
S1130450833618F4813669F405C0833639F084365E
S113046041F406C06BBB089568BB089565BB08954D
S113047062BB0895843409F1853438F48234A9F0D8
S11304808334B8F48134E1F40CC0823671F08336DD
S113049018F48136A9F405C0833659F0843681F402
S11304A00CC08BB380958BBB089588B3809588BBB3
S11304B0089585B3809585BB089582B3809582BBEA
S11304C008958434D9F0853438F4823499F083342F
S11304D098F48134A1F40CC0823661F0833618F4A8
S11304E0813669F405C0833639F0843641F406C098
S11304F099B305C096B303C093B301C090B3892FD9
S11305000895843409F471C0853448F4823499F12F
S1130510833408F04DC0813409F083C00FC08236A3
S113052051F1833620F4813609F07BC007C083364D
S113053009F43EC0843609F074C057C0413069F4F0
S11305402BB381E090E0AC0102C0440F551F6A95C3
S1130550E2F7BA01622B6BBB08952BB381E090E004
S1130560AC0102C0440F551F6A95E2F7BA016095C9
S113057062236BBB0895413069F428B381E090E0B5
S1130580AC0102C0440F551F6A95E2F7BA01622B11
S113059068BB089528B381E090E0AC0102C0440F29
S11305A0551F6A95E2F7BA016095622368BB089506
S11305B0413069F425B381E090E0AC0102C0440FFE
S11305C0551F6A95E2F7BA01622B65BB089525B3FE
S11305D081E090E0AC0102C0440F551F6A95E2F738
S11305E0BA016095622365BB0895413069F422B372
S11305F081E090E0AC0102C0440F551F6A95E2F718
S1130600BA01622B62BB089522B381E090E0AC0191
S113061002C0440F551F6A95E2F7BA016095622340
S113062062BB08959FBB8EBB6DBBE29AE19A8CB30B
S113063081FDFDCF08959FBB8EBBE09AE099FECF6C
S11306408DB308958FB780688FBF08958FB78F7764
S11306508FBF089583E46FE00E94FC0183E464E0AB
S113066041E00E94810283E465E041E00E9481024E
S113067083E466E041E00E94810283E467E041E0B4
S11306800E94810283E460E041E00E94DA0083E496
S113069061E041E00E94DA0083E462E041E00E940C
S11306A0DA0083E463E041E00E94DA0008950F93E6
S11306B01F93CF93DF93CDB7DEB760970FB6F8944F
S11306C0DEBF0FBECDBFDE011196E0E6F0E080E1B3
S11306D001900D928150E1F700E083E4602F40E047
S11306E00E94DA0010E0612F6C5F83E40E94B8017D
S11306F0882389F4E02FF0E0EE0FFF1FEE0FFF1FB9
S1130700E10FF11DEC0FFD1F118183E4602F41E027
S11307100E94DA0004C01F5F143029F70CC0812F37
S113072060960FB6F894DEBF0FBECDBFDF91CF91B8
S11307301F910F91089583E4602F41E00E94DA0035
S11307400F5F043051F61FEFEACF81E466E041E029
S11307500E94DA008FE99FE00197F1F700C00000E2
S113076081E466E040E00E94DA008FE99FE00197AF
S1130770F1F700C000000895CF93C82F482F429589
S11307804F70417081E460E00E94DA004C2F429582
S113079046954770417081E461E00E94DA004C2F75
S11307A04295469546954370417081E462E00E940B
S11307B0DA004C2F441F4427441F81E463E00E9465
S11307C0DA0081E464E040E00E94DA000E94A503BC
S11307D04C2F417081E460E00E94DA004C2F469572
S11307E0417081E461E00E94DA004C2F4695469501
S11307F0417081E462E00E94DA00C695C695C69510
S11308004C2F417081E463E00E94DA0081E464E0EB
S113081040E00E94DA000E94A503CF9108958FE77B
S113082099EAA3E081509040A040E1F700C00000A5
S113083081E460E041E00E94490081E461E041E03C
S11308400E94490081E462E041E00E94490081E4A1
S113085063E041E00E94490081E464E041E00E94D9
S1130860490081E465E041E00E94490081E466E0DA
S113087041E00E94490081E465E040E00E94DA0022
S113088082E00E94BC03AFE1BEE41197F1F700C01F
S1130890000088E20E94BC038FEC97E00197F1F717
S11308A000C000008CE00E94BC03AFECB7E01197DD
S11308B0F1F700C0000081E00E94BC038FE19EE4D8
S11308C00197F1F700C0000086E00E94BC03AFEC82
S11308D0B7E01197F1F700C000000895CF93C82F37
S11308E0482F42954F70417081E460E00E94DA0025
S11308F04C2F429546954770417081E461E00E9417
S1130900DA004C2F4295469546954370417081E438
S113091062E00E94DA004C2F441F4427441F81E404
S113092063E00E94DA0081E464E041E00E94DA00BE
S11309300E94A5034C2F417081E460E00E94DA001C
S11309404C2F4695417081E461E00E94DA004C2FFF
S113095046954695417081E462E00E94DA00C695AE
S1130960C695C6954C2F417081E463E00E94DA007D
S113097081E464E041E00E94DA000E94A503CF9183
S1130980089581E00E94BC030895833080F46131AE
S113099080F4662381F0882381F0813019F4962F46
S11309A091580CC0823051F4962F915407C090E8AE
S11309B005C090E803C090E801C090E8892F0E9428
S11309C0BC030895CF93DF93EC018881882331F031
S11309D021960E946E0489918823D9F7DF91CF91E3
S11309E008951F93CF93DF93CDB7DEB728970FB643
S11309F0F894DEBF0FBECDBF8A30910518F0009782
S1130A0029F42DC0805D0E946E0429C010E02AE004
S1130A1030E0E12FFF27E7FDF09541E050E04C0F77
S1130A205D1FE40FF51FB9010E94C90B8083862F57
S1130A30972F1F5F009769F711168CF41150E12F5F
S1130A40FF27E7FDF09581E090E08C0F9D1FE80FF4
S1130A50F91F8081805D0E946E04112379F7289626
S1130A600FB6F894DEBF0FBECDBFDF91CF911F91BB
S1130A700895809190029091910201969093910231
S1130A80809390020895CF93DF93CDB7DEB72B9771
S1130A900FB6F894DEBF0FBECDBF0E940F040E94B4
S1130AA02A030E941A0B0E94660B89E395E00E94B8
S1130AB0610B80E790E00E94E20482E061E00E9422
S1130AC0C5048EE790E00E94E2042FEF33ED40E38B
S1130AD0215030404040E1F700C000000E94C104B2
S1130AE080E191E00E941B038F3F09F0AAC08CE8CB
S1130AF090E00E94E20482E061E00E94C5040F2EAF
S1130B00F0E1EF2EF1E0FF2EF02D0E945703182F95
S1130B108FE799EAA3E081509040A040E1F700C03C
S1130B2000001F3F91F3812F0E946E042FEF30E7E6
S1130B3042E0215030404040E1F700C000006E2DFB
S1130B406F5082E00E94C5048AE20E946E04C701CD
S1130B50612F0E9412030894E11CF11C34E1E31696
S1130B6031E0F30691F68FE799EAA3E081509040D3
S1130B70A040E1F700C000000E94C1048AE990E0AF
S1130B800E94E2042FEF34E34CE021503040404017
S1130B90E1F700C000000E94C1048AEA90E00E94CC
S1130BA0E20482E061E00E94C504EE24FF2468941C
S1130BB0F0F80E945703182F8FE799EAA3E08150B9
S1130BC09040A040E1F700C000001F3F91F3812F47
S1130BD00E946E042FEF30E742E021503040404045
S1130BE0E1F700C000006E2D6F5F82E00E94C50433
S1130BF08AE20E946E04C701612F0E9412030894C6
S1130C00E11CF11C34E0E31631E0F30691F68FE7C2
S1130C1099EAA3E081509040A040E1F700C00000B1
S1130C200E94C10488EB90E00E94E2042FEF34E3B9
S1130C304CE0215030404040E1F700C000000E94E9
S1130C40C104AA2433E03B87AE014F5F5F4F5E834C
S1130C504D834F8358870F2EF5E02F2EF2E03F2E61
S1130C60F02D0F2EFCE74F2EF1E05F2EF02D0E94A9
S1130C70C10488EC90E00E94E20482E061E00E94FA
S1130C80C50485ED90E00E94E2040E9457032FE71B
S1130C9039EA43E0215030404040E1F700C0000011
S1130CA0982F9153923088F7B82E8FE799EAA3E0F2
S1130CB081509040A040E1F700C000000E94C104B0
S1130CC09924939466247724689470F8998686EE20
S1130CD090E00E94E20482E0692D0E94C5046E0146
S1130CE00894C11CD11CEF80F884092D0E9457037D
S1130CF0182F2FE739EA43E0215030404040E1F714
S1130D0000C000008F3F91F30E946E048FEF90E7C4
S1130D10A2E081509040A040E1F700C0000082E0D2
S1130D20602F0E94C5048AE20E946E04D7011D93BD
S1130D307D010F5F0530D1F6730100E08B2DB02EDD
S1130D40082F013351F4F6011081C70140960E9427
S1130D501B03181759F0B98409C0023339F4D601BA
S1130D601C91C7010E941B031813B9840894C11C69
S1130D70D11C0894E11CF11CB4E0EB16B1E0FB06B5
S1130D8001F7802F0B2DB82E0E94C104013029F5E4
S1130D9086EF90E00E94E20482E0692D0E94C5047F
S1130DA0EB85E150EB878E2F992787FD90950E9464
S1130DB0F10485E091E00E94E2042FEF39E648E176
S1130DC0215030404040E1F700C000000E94C104BF
S1130DD03B8513160CF47BCF2AC40E94C104013056
S1130DE009F048C082E191E00E94E2048AE090E0C8
S1130DF00E94F10482E061E00E94C50480E291E077
S1130E000E94E20410929102109290020F2EF4E6D6
S1130E10EF2EFF24F02D0AE010E00F2EF8E2CF2E83
S1130E20F1E0DF2EF02D81E06EE00E94C504809198
S1130E30900290919102B7010E94C90BC801861BD0
S1130E40970B0E94F104C6010E94E2048FEF90E721
S1130E50A2E081509040A040E1F700C000008091E2
S1130E60900290919102A3E0883E9A07E0F20E94DA
S1130E70C104FDCEB1E3BB1671F48CE291E00E9493
S1130E80E2042FEF39E648E1215030404040E1F7D9
S1130E9000C0000010C032E3B31669F48BE391E0A4
S1130EA00E94E2048FEF99E6A8E181509040A040AF
S1130EB0E1F700C0000010929102109290020F2EF0
S1130EC0FBE5EF2EF1E0FF2EF02D0F2EFDEF6F2E40
S1130ED0F1E07F2EF02D0F2EFCE6CF2EF1E0DF2E79
S1130EE0F02D0A2D91E3B91609F02BC20E94C1041A
S1130EF08AE491E00E94E2042FEF39E648E12150B0
S1130F0030404040E1F700C000000E94C104C70126
S1130F100E94E20482E061E00E94C504C6010E94CE
S1130F20E20410929102109290021CC08F3FD1F003
S1130F300E94C104C2010E94E2048FEF99E6A8E175
S1130F4081509040A040E1F700C000000E94C1041D
S1130F50C7010E94E20482E061E00E94C504C60168
S1130F600E94E2040E9457032FE739EA43E021502C
S1130F7030404040E1F700C00000282F21532430C6
S1130F8048F0209190023091910243E0283E3407CA
S1130F9068F209C0182F809190029091910253E059
S1130FA0883E950790F00E94C1048CE891E00E946D
S1130FB0E2048FEF99E6A8E181509040A040E1F768
S1130FC000C000000E94C1043AC2143309F0AAC14F
S1130FD00E94C1048DE991E00E94E20482E061E094
S1130FE00E94C5048DEA91E00E94E20410929102ED
S1130FF0109290021EC08F3FE1F00E94C104C20112
S11310000E94E2042FEF39E648E12150304040408D
S1131010E1F700C000000E94C1048DE991E00E9444
S1131020E20482E061E00E94C5048DEA91E00E943E
S1131030E2040E9457032FE739EA43E0215030408D
S11310404040E1F700C00000282F2153243048F02D
S1131050209190023091910243E0283E340758F2E7
S113106009C0182F809190029091910253E0883E1C
S1131070950790F00E94C1048CE891E00E94E2047C
S11310808FEF99E6A8E181509040A040E1F700C0BD
S113109000000E94C104D3C1233068F4812F8D5F06
S11310A00E94370B012F0D52110F0F2EF4EA8F2ED1
S11310B0F02D810EC4C1143309F0C1C10E94C104D2
S11310C08DEB91E00E94E20482E061E00E94C5049D
S11310D08DEC91E00E94E204109291021092900231
S11310E01FC08F3FE9F00E94C1048DED91E00E9482
S11310F0E2042FEF39E648E1215030404040E1F767
S113110000C000000E94C1048DEB91E00E94E20443
S113111082E061E00E94C5048DEC91E00E94E2044B
S11311200E9457032FE739EA43E021503040404002
S1131130E1F700C00000982F9153923048F02091BD
S113114090023091910243E0283E340750F208C0E7
S1131150209190023091910253E0283E350790F09F
S11311600E94C1048CE891E00E94E2048FEF99E6AA
S1131170A8E181509040A040E1F700C000000E9427
S1131180C1045DC1813309F066C00E94C1048FEEC1
S113119091E00E94E20482E061E00E94C504A0E1C3
S11311A0B1E0BA87A987902E0B2D0F2EF0E1AF2E58
S11311B0F1E0BF2EF02D0E945703182F2FE739EAD4
S11311C043E0215030404040E1F700C000008F3F31
S11311D091F30E946E048FEF90E7A2E0815090405B
S11311E0A040E1F700C000006A2D6F5082E00E9429
S11311F0C5048AE20E946E04C501612F0E94120395
S11312000894A11CB11C94E1A91691E0B90699F6C1
S1131210B02E092D2FE739EA43E0215030404040F9
S1131220E1F700C000000E94C1048AE990E00E9436
S1131230E2048FEF96E1A1E181509040A040E1F7F4
S113124000C000000E94C10488EE93E090939102D4
S113125080939002F4C0823309F0F1C00E94C1046B
S11312608FEE91E00E94E20482E061E00E94C504F6
S1131270A0E0B1E0BA87A987902E0B2DAA24BB2445
S11312806894B0F80E945703182F2FE739EA43E017
S1131290215030404040E1F700C000008F3F91F3FF
S11312A00E946E048FEF90E7A2E081509040A0402E
S11312B0E1F700C000006A2D6F5F82E00E94C50460
S11312C08AE20E946E04C501612F0E9412030894F1
S11312D0A11CB11C94E0A91691E0B90699F6B02EB0
S11312E0092D2FE739EA43E0215030404040E1F72F
S11312F000C000000E94C10488EB90E00E94E20458
S11313008FEF96E1A1E181509040A040E1F700C049
S113131000000E94C10488EE93E0909391028093B0
S113132090028DC0233008F08AC0812F0E94370BB1
S1131330012F0053110F0F2EFEE98F2EF02D810E79
S11313407EC092E3B91609F07AC00E94C1048AE40F
S113135091E00E94E2042FEF39E648E12150304049
S11313604040E1F700C000000E94C104C7010E9490
S1131370E20482E061E00E94C504C3010E94E20429
S113138010929102109290021CC08F3FD1F00E94E3
S1131390C104C1010E94E2048FEF99E6A8E18150E3
S11313A09040A040E1F700C000000E94C104C701C2
S11313B00E94E20482E061E00E94C504C3010E942D
S11313C0E2040E9457032FE739EA43E021503040FA
S11313D04040E1F700C00000982F9153933048F04B
S11313E0209190023091910243E0283E340768F244
S11313F009C0182F809190029091910253E0883E89
S1131400950790F00E94C1048CE891E00E94E204E8
S11314108FEF99E6A8E181509040A040E1F700C029
S113142000000E94C1040BC0812F0E94370B012FC2
S11314300053110F0F2EFEE98F2EF02D810E002385
S113144009F4E8C0802F8150833098F40E94C104CD
S113145085E192E00E94E204802F90E00E94F10472
S113146082E061E00E94C50480E292E00E94E2040E
S113147043C0802F84508230A0F40E94C1048FE2C4
S113148092E00E94E204802F90E003970E94F1040E
S113149082E061E00E94C50480E292E00E94E204DE
S11314A02BC0063061F50E94C1048AE392E00E94D9
S11314B0E20482E061E00E94C50487E492E00E94B5
S11314C0E20481E60E94370B853429F480E592E03A
S11314D00E94E20406C0823421F486E592E00E9470
S11314E0E2042FEF39E648E1215030404040E1F773
S11314F000C0000000E08EC0063009F48AC01092DB
S11315009102109290020E9457032FE739EA43E0B8
S1131510215030404040E1F700C00000982F915323
S1131520923048F0809190029091910233E0883E8D
S1131530930748F308C0209190023091910243E050
S1131540283E340790F00E94C1048CE891E00E9488
S1131550E2048FEF99E6A8E181509040A040E1F7C2
S113156000C000000E94C1040CC0813321F48EE449
S11315700E94370B06C0823321F486E40E94370BA5
S1131580839495E0981578F082E061E00E94C504A8
S11315908BE592E00E94E204882D869590E0019606
S11315A00E94F10412C0882D8650843070F482E0C9
S11315B061E00E94C50481E692E00E94E204882D65
S11315C0869590E002970E94F10480FC11C086E6A3
S11315D092E00E94E2042FEF39E648E121503040C6
S11315E04040E1F700C000000E94C10400E012C0C6
S11315F08AE792E00E94E2048FEF99E6A8E1815025
S11316009040A040E1F700C000000E94C10400E047
S113161001C000E08091900290919102A3E0883E85
S11316209A0708F45FCCA02EB3E0BB8720CB0E94BE
S1131630C104D8CB82E465E041E00E94490082E421
S113164064E041E00E94490082E467E041E00E94D6
S1131650490082E466E040E00E9449006C9A689A7E
S11316606E9A82E464E041E00E94DA000895CF9328
S1131670C82F82E464E040E00E94DA00CFB9779B8F
S1131680FECF8FB1CF910895CF93DF93EC01888182
S1131690882379F021960E94370B8FEF91EEA4E016
S11316A081509040A040E1F700C000008991882358
S11316B091F7DF91CF9108959093950280939402CE
S11316C008959093930280939202089583B788605B
S11316D083BF8FE48CBF83B7816083BF83B784608B
S11316E083BF0E94220389B7826089BF08951F9235
S11316F00F920FB60F9211242F933F934F935F9342
S11317006F937F938F939F93AF93BF93EF93FF93C5
S1131710E0919202F0919302309709F00995FF91BC
S1131720EF91BF91AF919F918F917F916F915F9155
S11317304F913F912F910F900FBE0F901F901895CE
S11317401F920F920FB60F9211242F933F934F9332
S11317505F936F937F938F939F93AF93BF93EF9315
S1131760FF93E0919402F0919502309709F0099566
S1131770FF91EF91BF91AF919F918F917F916F9165
S11317805F914F913F912F910F900FBE0F901F903B
S11317901895AA1BBB1B51E107C0AA1FBB1FA617A4
S11317A0B70710F0A61BB70B881F991F5A95A9F706
S11117B080959095BC01CD010895F894FFCF6B
S11317BE3738392F3435362A3132332D41303D2BDB
S11317CE20202057656C636F6D6520546F002020B8
S11317DE20534D41525420484F4D450053657420BB
S11317EE41646D696E2050573A0041646D696E20F4
S11317FE50572069732073657400536574204775C0
S113180E6573742050573A004775657374205057AA
S113181E206973207365740043686F6F7365204D80
S113182E6F64653A00313A41646D696E2020323A34
S113183E477565737400456E7465722050617373D9
S113184E776F72643A0057726F6E672050617373CC
S113185E776F72640020547269616C73204C6566F4
S113186E740054727920416761696E20696E20009C
S113187E5365636F6E6473002020200057656C639C
S113188E6F6D652041646D696E210057656C636FE1
S113189E6D65204775657374210043686F6F7365BA
S11318AE20616E204F7074696F6E00313A524F4F43
S11318BE4D312020323A524F4F4D3200333A524F6F
S11318CE4F4D332020343A4D4F524500456E7465CA
S11318DE722066726F6D20312D3E34005365737322
S11318EE696F6E2054696D65644F757400313A46A4
S11318FE414E31202020323A46414E3200333A478F
S113190E415241474520343A4D6F726500313A4396
S113191E686E672041646D696E20505700323A63D9
S113192E686E6720477565737420505700456E7452
S113193E65722066726F6D2031206F722032004EF8
S113194E65772050617373776F72643A00333A523D
S113195E4F4F4D3300456E7465722066726F6D2065
S113196E312D3E33002020202020524F4F4D5F005A
S113197E313A4F4E2020202020323A4F4646002046
S113198E202020202046414E5F00202020202020B1
S113199E474152414745005374617475733A2000B0
S11319AE456D707479004275737900524F4F4D5FD7
S11319BE0046414E5F00204F4E2020202020202044
S11319CE20202020202020202000204F46462020AA
S11319DE2020202020202020202020202020000035
S9030000FC
