S0130000534D4152545F536C6176652E7372656330
S11300000C942A000C9447000C9447000C9447006D
S11300100C9447000C9447000C94F9040C9447008A
S11300200C9447000C9447000C9480040C94A9048D
S11300300C9447000C9447000C9447000C94470020
S11300400C9447000C9447000C9447000C94470010
S11300500C94470011241FBECFE5D8E0DEBFCDBF0E
S113006010E0A0E6B0E0E2E7FBE002C005900D92EC
S1130070A036B107D9F710E0A0E6B0E001C01D92A8
S1130080A936B107E1F70E948A030C94B7050C94D2
S11300900000843409F471C0853448F4823499F141
S11300A0833408F04DC0813409F083C00FC0823618
S11300B051F1833620F4813609F07BC007C08336C2
S11300C009F43EC0843609F074C057C0413069F465
S11300D02AB381E090E0AC0102C0440F551F6A9539
S11300E0E2F7BA01622B6ABB08952AB381E090E07B
S11300F0AC0102C0440F551F6A95E2F7BA0160953E
S113010062236ABB0895413069F427B381E090E02B
S1130110AC0102C0440F551F6A95E2F7BA01622B85
S113012067BB089527B381E090E0AC0102C0440F9F
S1130130551F6A95E2F7BA016095622367BB08957B
S1130140413069F424B381E090E0AC0102C0440F73
S1130150551F6A95E2F7BA01622B64BB089524B374
S113016081E090E0AC0102C0440F551F6A95E2F7AC
S1130170BA016095622364BB0895413069F421B3E8
S113018081E090E0AC0102C0440F551F6A95E2F78C
S1130190BA01622B61BB089521B381E090E0AC0108
S11301A002C0440F551F6A95E2F7BA0160956223B5
S11301B061BB0895843409F471C0853448F48234F1
S11301C099F1833408F04DC0813409F083C00FC025
S11301D0823651F1833620F4813609F07BC007C0A2
S11301E0833609F43EC0843609F074C057C04130E8
S11301F069F42BB381E090E0AC0102C0440F551FB9
S11302006A95E2F7BA01622B6BBB08952BB381E0C8
S113021090E0AC0102C0440F551F6A95E2F7BA01A1
S1130220609562236BBB0895413069F428B381E083
S113023090E0AC0102C0440F551F6A95E2F7BA0181
S1130240622B68BB089528B381E090E0AC0102C042
S1130250440F551F6A95E2F7BA016095622368BBA3
S11302600895413069F425B381E090E0AC0102C007
S1130270440F551F6A95E2F7BA01622B65BB0895D6
S113028025B381E090E0AC0102C0440F551F6A958C
S1130290E2F7BA016095622365BB0895413069F4C1
S11302A022B381E090E0AC0102C0440F551F6A956F
S11302B0E2F7BA01622B62BB089522B381E090E0B9
S11302C0AC0102C0440F551F6A95E2F7BA0160956C
S11302D0622362BB0895843409F43DC0853440F43C
S11302E08234F9F0833450F5813409F040C00CC0F5
S11302F08236B9F0833618F48136C9F505C08336E1
S1130300E9F08436A1F527C02BB381E090E0AC017D
S113031002C0440F551F6A95E2F7BA0162276BBB0E
S1130320089528B381E090E0AC0102C0440F551F4A
S11303306A95E2F7BA01622768BB089525B381E0A4
S113034090E0AC0102C0440F551F6A95E2F7BA0170
S1130350622765BB089522B381E090E0AC0102C03E
S1130360440F551F6A95E2F7BA01622762BB0895EC
S11303708434B1F1853438F48234E1F0833428F5DF
S11303808134C1F50CC08236A9F0833618F4813665
S113039089F505C08336C9F0843661F521C029B3D7
S11303A030E0C90102C0959587956A95E2F7982FC8
S11303B0917020C026B330E0C90102C0959587959D
S11303C06A95E2F7982F917015C023B330E0C90104
S11303D002C0959587956A95E2F7982F91700AC0A7
S11303E020B330E0C90102C0959587956A95E2F77C
S11303F0982F9170892F08958434D9F0853438F476
S1130400823499F0833498F48134A1F40CC0823698
S113041061F0833618F4813669F405C0833639F007
S1130420843641F406C06ABB089567BB089564BB73
S1130430089561BB08958434D9F0853438F4823446
S113044099F0833498F48134A1F40CC0823661F0BD
S1130450833618F4813669F405C0833639F084365E
S113046041F406C06BBB089568BB089565BB08954D
S113047062BB0895843409F1853438F48234A9F0D8
S11304808334B8F48134E1F40CC0823671F08336DD
S113049018F48136A9F405C0833659F0843681F402
S11304A00CC08BB380958BBB089588B3809588BBB3
S11304B0089585B3809585BB089582B3809582BBEA
S11304C008958434D9F0853438F4823499F083342F
S11304D098F48134A1F40CC0823661F0833618F4A8
S11304E0813669F405C0833639F0843641F406C098
S11304F099B305C096B303C093B301C090B3892FD9
S11305000895843409F471C0853448F4823499F12F
S1130510833408F04DC0813409F083C00FC08236A3
S113052051F1833620F4813609F07BC007C083364D
S113053009F43EC0843609F074C057C0413069F4F0
S11305402BB381E090E0AC0102C0440F551F6A95C3
S1130550E2F7BA01622B6BBB08952BB381E090E004
S1130560AC0102C0440F551F6A95E2F7BA016095C9
S113057062236BBB0895413069F428B381E090E0B5
S1130580AC0102C0440F551F6A95E2F7BA01622B11
S113059068BB089528B381E090E0AC0102C0440F29
S11305A0551F6A95E2F7BA016095622368BB089506
S11305B0413069F425B381E090E0AC0102C0440FFE
S11305C0551F6A95E2F7BA01622B65BB089525B3FE
S11305D081E090E0AC0102C0440F551F6A95E2F738
S11305E0BA016095622365BB0895413069F422B372
S11305F081E090E0AC0102C0440F551F6A95E2F718
S1130600BA01622B62BB089522B381E090E0AC0191
S113061002C0440F551F6A95E2F7BA016095622340
S113062062BB08958FB780688FBF08958FB78F77A7
S11306308FBF089541E00E944900089541E00E945F
S1130640DA00089540E00E94DA0008950E946B01E8
S113065008950E94B8010895CF93DF93C82FD42F33
S113066041E00E9449008C2F6D2F41E00E94490017
S1130670DF91CF9108951F93CF93DF93C82F162F47
S1130680D42F222351F4642F40E00E94DA008C2FEF
S1130690612F41E00E94DA0015C0213049F440E0A6
S11306A00E94DA008C2F6D2F41E00E94DA000AC00C
S11306B0223041F440E00E94DA008C2F6D2F40E09C
S11306C00E94DA00DF91CF911F910895809160001C
S11306D08F5F809360008132E0F0109260000E948E
S11306E02A0590936800809367008431910548F44B
S11306F081E461E00E941E0381E462E00E9422031F
S1130700089581E461E00E94220381E462E00E9492
S11307101E03089584E460E00E941A0384E461E007
S11307200E941A0384E462E00E941A0383E460E0F6
S113073041E00E942C0383E462E043E00E942C0326
S11307400E94220581E462E00E941A0381E461E0D0
S11307500E941A030E9432040E946F0486E693E00A
S11307600E946A0481E60E944804813389F481E688
S11307700E9448048E3429F484E460E00E941E033D
S1130780F1CF863479F784E460E00E942203EACF53
S1130790823389F481E60E9448048E3429F484E487
S11307A061E00E941E03DECF8634E1F684E461E05A
S11307B00E942203D7CF833389F481E60E94480440
S11307C08E3429F484E462E00E941E03CBCF863485
S11307D049F684E463E00E942203C4CF8433B1F475
S11307E081E60E9448048E3439F483E460E041E0F9
S11307F020E00E943B03B6CF863409F0B3CF83E4F4
S113080060E041E022E00E943B03ACCF8533B1F4C9
S113081081E60E9448048E3439F483E462E043E0C4
S113082020E00E943B039ECF863409F09BCF83E4F3
S113083062E043E022E00E943B0394CF863309F058
S113084091CF0E942A0590936800809367008431B9
S1130850910520F482E40E94480484CF85E40E9438
S1130860480480CF82E466E041E00E94490082E4CB
S113087065E040E00E94490082E464E040E00E94B8
S1130880490082E467E040E00E9449006E9A0895BE
S11308908FB9779BFECF8FB10895CF93DF93EC018F
S11308A08881882379F021960E9448048FEF91EE85
S11308B0A4E081509040A040E1F700C0000089917D
S11308C0882391F7DF91CF910895909364008093EA
S11308D0630008959093620080936100089583B744
S11308E0886083BF8AEF8CBF83B7816083BF83B77F
S11308F0846083BF0E94120389B7826089BF089510
S11309001F920F920FB60F9211242F933F934F9380
S11309105F936F937F938F939F93AF93BF93EF9363
S1130920FF93E0916100F0916200309709F009951E
S1130930FF91EF91BF91AF919F918F917F916F91B3
S11309405F914F913F912F910F900FBE0F901F9089
S113095018951F920F920FB60F9211242F933F9365
S11309604F935F936F937F938F939F93AF93BF93B3
S1130970EF93FF93E0916300F0916400309709F0E6
S11309800995FF91EF91BF91AF919F918F917F91C5
S11309906F915F914F913F912F910F900FBE0F90E8
S11309A01F901895909366008093650008951FBC6E
S11309B08EB582608EBD8EB580688EBD0E94120396
S11309C008959BBD8ABD089588B785FFFDCF86B580
S11309D097B528B7206228BF0895882321F48EB5DF
S11309E08F7B8EBD0895813019F48EB580648EBDE1
S11309F008951F920F920FB60F9211242F933F93D5
S1130A004F935F936F937F938F939F93AF93BF9312
S1130A10EF93FF93E0916500F0916600309709F041
S1130A200995FF91EF91BF91AF919F918F917F9124
S1130A306F915F914F913F912F910F900FBE0F9047
S1130A401F90189581E460E041E00E9449000E94F3
S1130A50D7040895CF93DF9381E460E041E00E94DE
S1130A60DA0085E88A95F1F7000081E460E040E06F
S1130A700E94DA0081E00E94ED040E94E404EC018B
S1130A8080E00E94ED040E94E404BC016C1B7D0B19
S1130A9080E090E028E237E840E050E00E945B0507
S1130AA020E834E84EE150E00E947A05822F932F2B
S1130AB0DF91CF910895629FD001739FF001829FCF
S1130AC0E00DF11D649FE00DF11D929FF00D839FD9
S1130AD0F00D749FF00D659FF00D9927729FB00D76
S1130AE0E11DF91F639FB00DE11DF91FBD01CF0189
S1130AF01124089597FB092E05260ED057FD04D026
S1130B0014D00AD0001C38F45095409530952195A6
S1130B103F4F4F4F5F4F0895F6F79095809570952E
S1130B2061957F4F8F4F9F4F0895A1E21A2EAA1B04
S1130B30BB1BFD010DC0AA1FBB1FEE1FFF1FA21789
S1130B40B307E407F50720F0A21BB30BE40BF50B86
S1130B50661F771F881F991F1A9469F7609570950F
S1130B60809590959B01AC01BD01CF010895F89447
S1050B70FFCFB1
S9030000FC
